{
  "_format": "hh-sol-artifact-1",
  "contractName": "SimpleWallet",
  "sourceName": "contracts/simplewallet.sol",
  "abi": [
    {
      "inputs": [],
      "stateMutability": "nonpayable",
      "type": "constructor"
    },
    {
      "inputs": [],
      "name": "deposit",
      "outputs": [],
      "stateMutability": "payable",
      "type": "function"
    },
    {
      "inputs": [],
      "name": "getBalance",
      "outputs": [
        {
          "internalType": "uint256",
          "name": "",
          "type": "uint256"
        }
      ],
      "stateMutability": "view",
      "type": "function"
    },
    {
      "inputs": [],
      "name": "owner",
      "outputs": [
        {
          "internalType": "address",
          "name": "",
          "type": "address"
        }
      ],
      "stateMutability": "view",
      "type": "function"
    },
    {
      "inputs": [
        {
          "internalType": "uint256",
          "name": "_amount",
          "type": "uint256"
        }
      ],
      "name": "withdraw",
      "outputs": [],
      "stateMutability": "nonpayable",
      "type": "function"
    },
    {
      "stateMutability": "payable",
      "type": "receive"
    }
  ],
  "bytecode": "0x6080604052348015600f57600080fd5b50336000806101000a81548173ffffffffffffffffffffffffffffffffffffffff021916908373ffffffffffffffffffffffffffffffffffffffff16021790555061044e8061005f6000396000f3fe6080604052600436106100435760003560e01c806312065fe01461004f5780632e1a7d4d1461007a5780638da5cb5b146100a3578063d0e30db0146100ce5761004a565b3661004a57005b600080fd5b34801561005b57600080fd5b506100646100d8565b604051610071919061025a565b60405180910390f35b34801561008657600080fd5b506100a1600480360381019061009c91906102a6565b6100e0565b005b3480156100af57600080fd5b506100b861021b565b6040516100c59190610314565b60405180910390f35b6100d661023f565b005b600047905090565b60008054906101000a900473ffffffffffffffffffffffffffffffffffffffff1673ffffffffffffffffffffffffffffffffffffffff163373ffffffffffffffffffffffffffffffffffffffff161461016e576040517f08c379a00000000000000000000000000000000000000000000000000000000081526004016101659061038c565b60405180910390fd5b804710156101b1576040517f08c379a00000000000000000000000000000000000000000000000000000000081526004016101a8906103f8565b60405180910390fd5b60008054906101000a900473ffffffffffffffffffffffffffffffffffffffff1673ffffffffffffffffffffffffffffffffffffffff166108fc829081150290604051600060405180830381858888f19350505050158015610217573d6000803e3d6000fd5b5050565b60008054906101000a900473ffffffffffffffffffffffffffffffffffffffff1681565b565b6000819050919050565b61025481610241565b82525050565b600060208201905061026f600083018461024b565b92915050565b600080fd5b61028381610241565b811461028e57600080fd5b50565b6000813590506102a08161027a565b92915050565b6000602082840312156102bc576102bb610275565b5b60006102ca84828501610291565b91505092915050565b600073ffffffffffffffffffffffffffffffffffffffff82169050919050565b60006102fe826102d3565b9050919050565b61030e816102f3565b82525050565b60006020820190506103296000830184610305565b92915050565b600082825260208201905092915050565b7f4e6f7420746865206f776e657200000000000000000000000000000000000000600082015250565b6000610376600d8361032f565b915061038182610340565b602082019050919050565b600060208201905081810360008301526103a581610369565b9050919050565b7f496e73756666696369656e742062616c616e6365000000000000000000000000600082015250565b60006103e260148361032f565b91506103ed826103ac565b602082019050919050565b60006020820190508181036000830152610411816103d5565b905091905056fea2646970667358221220309a592a948ae3976f336d8f402e322554fea490d77112fa27d60f647aa74a1764736f6c634300081c0033",
  "linkReferences": {},
  "deployedLinkReferences": {}
}